:0300000002108665
:0C108600787FE4F6D8FD7581200210CDC3
:0C154400416E676C653A005365743A0014
:1013240042001E0000420053000042001A00004127
:10133400005C004100600042005D000041000400C8
:1013440042000E00004100550042001C0000C18212
:10135400C103C18643000701220044000A000000C3
:10136400004A0010000000000000000000004200DD
:0313740056000020
:10140300E0FAA3E0FB7D047F011214EA7F017E0072
:101413007D6E7C00AB07AA06D3EB9400EA940040F0
:1014230007EB1B70F31A80F0ED1D70011CED4C707F
:01143300E3D5
:011434002295
:10153300C287C2868FA012140FD285121413C285DC
:011543002285
:1013CB00AF051215337C007D0AAF82AE83120A5330
:1013DB00AB07AA06AE83AF827C007D0A120A538D3F
:0713EB00828C83EB2430FF2C
:1013F200D287C2868FA012140FD285121413C2850F
:0114020022C7
:10150600C2857F381215337F0C1215337F061215EC
:0B151600337F011215337F8002153374
:10119A00900062EFF0A3EDF0A3EBF0A3EAF0A3E96D
:0111AA00F054
:1011AB00E4900068F0F0900067E0FFA3E0C39F506D
:1011BB0044900062E07007A3E04480F08007900049
:1011CB0063E044C0F0900063E0FF121533A3E0FB33
:1011DB00A3E0FAA3E0F9120A28FF1213F2900063BE
:1011EB00E004F0900065E475F001120AA890006825
:0511FB00E004F080B1EA
:0112000022CB
:0C14660090000EE0FAA3E0FB7D06E4FF1E
:041472008B828A835C
:10147600EF7006ED4480FD8004ED44C0FD1213CBF1
:0D148600E5822430FF1213F27FDF0213F223
:0414EA008B828A83E4
:1014EE00EF7006ED4480FD8004ED44C0FD1213CB79
:0814FE00E5822430FF0213F225
:08111200900069EAF0A3EBF084
:10111A00EF7006ED4480FD8004ED44C0FDAF05127A
:10112A001533900069E0FEA3E0FF7C007D64120A9B
:10113A0053AB07AA06900069E0FEA3E0FF7C007D9E
:10114A0064120A537E007F0ACFCDCFCECCCE120ACC
:10115A0053A3EEF0A3EFF0900069E0FEA3E0FF7C5A
:10116A00007D0A120A5390006DECF0A3EDF0AF0374
:10117A00EF2430FF1213F27F2E1213F290006BA3AA
:10118A00E02430FF1213F2A3A3E02430FF0213F28B
:0813780090006FEEF0A3EFF00E
:10138000E4A3F0A3F0900071F0A3F090006FE0FEF2
:10139000A3E0FFC3900072E09F900071E09E502A8E
:1013A000E4FF12149390005DEEF0A3EFF012000E34
:1013B0001214667F647E00121413900072E004F031
:0A13C00070C9900071E004F080C1D4
:0113CA002200
:10149300121435EF75F004A4ADBE7C002DFFEC35BE
:1014A300F08F82F5837D21FE120A417D64120A5377
:0B14B3008E838F8212140FAE83AF8275
:0114BE00220B
:10143500E4FDFCF5BDF5BEEF4488F5BC00000000F9
:10144500E5BC30E4FB53BCEFAFBD7C00AD077E00CF
:10145500ED7802C333CE33CED8F9ADBE2DFDAF0541
:011465002264
:10152100759201759101E4F5BD75BC807F01FE02E4
:02153100141391
:10000E0090005DE0FEA3E08EF0120B09045E004C42
:10001E00045E004D045E004E045E004F045E005010
:10002E0004600051046900520471005304710054BD
:10003E000473005504730056047C0057047C00586A
:10004E00047E0059047E005A0488005B0488005C1C
:10005E00048A005D048A005E0494005F04940060CC
:10006E00049E0061049E0062049E006304A000646E
:10007E0004A0006504AA006604AA006704B4006820
:10008E0004B4006904B4006A04BE006B04BE006CC4
:10009E0004BE006D04C0006E04C0006F04CA007080
:1000AE0004CA007104D4007204D4007304D4007422
:1000BE0004D6007504D6007604E0007704E00078DC
:1000CE0004E0007904EA007A04EA007B04EA007C8A
:1000DE0004EC007D04EC007E04EC007F04F600804E
:1000EE0004F6008104F6008204F8008304F800840C
:1000FE0004F80085050200860502008705020088C7
:10010E00050400890504008A0504008B050E008C89
:10011E00050E008D0518008E0518008F051800902D
:10012E0005180091052200920522009305220094E5
:10013E00052C0095052C0096052C00970536009889
:10014E00053600990536009A0540009B0540009C37
:10015E000540009D054A009E054A009F054A00A0E5
:10016E00054A00A1054C00A2054C00A3054C00A4B5
:10017E00055600A5055600A6055600A7055800A869
:10018E00055800A9056200AA056200AB056200AC25
:10019E00056C00AD056C00AE056C00AF056E00B0D1
:1001AE00056E00B1056E00B2057800B3057800B497
:1001BE00057800B5058200B6058200B7058200B845
:1001CE00058200B9058C00BA058C00BB058C00BCFD
:1001DE00058C00BD058E00BE058E00BF058E00C0CD
:1001EE00058E00C1059800C2059800C3059800C48D
:1001FE00059800C505A200C605A200C705A200C845
:10020E0005A200C905AC00CA05AC00CB05AC00CCFC
:10021E0005B600CD05B600CE05B600CF05B800D0A8
:10022E0005B800D105B800D205C200D305C200D46E
:10023E0005C200D505C200D605C400D705C400D836
:10024E0005C400D905CE00DA05CE00DB05CE00DCF4
:10025E0005CE00DD05D800DE05D800DF05D800E0AC
:10026E0005D800E105E200E205E200E305E200E464
:10027E0005EC00E505EC00E605EC00E705EC00E812
:10028E0005F600E905F600EA05F600EB05F600ECCA
:10029E0005F600ED05F800EE05F800EF060200F099
:1002AE00060200F1060200F2060200F3060400F454
:1002BE00060400F5060400F6060E00F7060E00F81A
:1002CE00060E00F9060E00FA061000FB061000FCE2
:1002DE00061000FD061000FE061A00FF061A0100A9
:1002EE00061A0101061C0102061C01030626010462
:1002FE000626010506260106062601070630010818
:10030E00063001090630010A0630010B063A010CCF
:10031E00063A010D063A010E063A010F063A011091
:10032E000644011106440112064401130644011449
:10033E00064E0115064E0116064E0117065C0118F3
:10034E00065C0119065C011A065C011B065C011CA9
:10035E000666011D0666011E0666011F0666012061
:10036E000670012106700122067001230670012419
:10037E0006700125067A0126067A0127067A0128DB
:10038E00067A0129067A012A0684012B0684012C9D
:10039E000684012D0684012E0684012F068E01305F
:1003AE00068E0131068E0132068E0133068E013421
:1003BE0006980135069801360698013706980138D9
:1003CE000698013906A2013A06A2013B06A2013C9B
:1003DE0006A2013D06A2013E06AC013F06AC01405D
:1003EE0006AC014106AC014206AC014306B601441F
:1003FE0006B6014506B6014606B6014706B60148E1
:10040E0006C0014906C0014A06C0014B06CA014C8E
:10041E0006CA014D06CA014E06D4014F06D401503C
:10042E0006D4015106DE015206DE015306DE0154EA
:10043E0006E8015506E8015606E8015706E8015898
:10044E0006E8015906E8015A06E8015B000006F1CC
:10045E008000E490000EF0A3020656E490000EF029
:10046E00A3F022800090000EE4F0A304F02280009E
:10047E0090000EE4F0A37402F022800090000EE4CF
:10048E00F0A37403F02290000EE4F0A37404F022A3
:10049E00800090000EE4F0A37405F02290000EE4AC
:1004AE00F0A37406F02290000EE4F0A37407F0227D
:1004BE00800090000EE4F0A37408F02290000EE489
:1004CE00F0A37409F022800090000EE4F0A3740AE9
:1004DE00F02290000EE4F0A3740BF0228000900046
:1004EE000EE4F0A3740CF022800090000EE4F0A352
:1004FE00740DF022800090000EE4F0A3740EF02232
:10050E0090000EE4F0A3740FF02290000EE4F0A31E
:10051E007410F02290000EE4F0A37411F0229000FB
:10052E000EE4F0A37412F02290000EE4F0A3741304
:10053E00F02290000EE4F0A37414F02280009000DC
:10054E000EE4F0A37415F022800090000EE4F0A3E8
:10055E007416F02290000EE4F0A37417F0228000BF
:10056E0090000EE4F0A37418F02290000EE4F0A3B5
:10057E007419F02290000EE4F0A3741AF022800099
:10058E0090000EE4F0A3741BF02290000EE4F0A392
:10059E00741CF02290000EE4F0A3741DF022900063
:1005AE000EE4F0A3741EF022800090000EE4F0A37F
:1005BE00741FF022800090000EE4F0A37420F0224D
:1005CE0090000EE4F0A37421F02290000EE4F0A34C
:1005DE007422F02290000EE4F0A37423F022900017
:1005EE000EE4F0A37424F022800090000EE4F0A339
:1005FE007425F022800090000EE4F0A37426F02201
:10060E00800090000EE4F0A37427F022800090008A
:10061E000EE4F0A37428F02290000EE4F0A37429E7
:10062E00802690000EE4F0A3742A801C90000EE445
:10063E00F0A3742B801290000EE4F0A3742C8008AB
:10064E0090000EE4F0A3742DF0C281C281229000BE
:10065E000EE4F0A3742EF02290000EE4F0A3742F9B
:10066E00F02290000EE4F0A37430F02290000EE41D
:10067E00F0A37431F02290000EE4F0A37432F02255
:10068E0090000EE4F0A37433F02290000EE4F0A379
:10069E007434F02290000EE4F0A37435F022900032
:1006AE000EE4F0A37436F02290000EE4F0A374373B
:1006BE00F02290000EE4F0A37438F02290000EE4C5
:1006CE00F0A37439F02290000EE4F0A3743AF022F5
:1006DE0090000EE4F0A3743BF02290000EE4F0A321
:0406EE00743CF02246
:1012C900C2B4C2B5C2B6C2B7E5B0540F640F604A22
:1012D900C2B4D2B5D2B6D2B7E4FF1214BFD2B4C2E7
:1012E900B5D2B6D2B77F041214BFD2B4D2B5C2B642
:1012F900D2B77F081214BFD2B4D2B5D2B6C2B77F63
:101309000C1214BFC2B4C2B5C2B6C2B7900004E091
:0B13190004F0E5B0540F640F70F822E0
:1014BF00E5B0F4540F24FE601024FE601124FC608C
:1014CF001224077015EF04800DEF24028008EF241B
:0A14DF00038003EF2404900006F0E0
:0114E90022E0
:100B3600900006E014B410004003020CFD900B5127
:100B460075F003A4C58325F0C58373020B81020BE0
:100B5600A4020BC7020CCA020BE8020C0B020C2EF5
:100B6600020C51020C70020C8F020CAE020CD20267
:100B76000CDA020CE1020CE8020CEF900004E0FF34
:100B86007E00640170069000007407F0EF64024E68
:100B96006003020CFD9000017407F0020CFD90004A
:100BA60004E0FF7E00640170069000007404F0EF1C
:100BB60064024E6003020CFD9000017404F0020C06
:100BC600FD900004E0FF7E006401700590000004C3
:100BD600F0EF64024E6003020CFD90000104F00287
:100BE6000CFD900004E0FF7E00640170069000009A
:100BF6007408F0EF64024E6003020CFD900001746D
:100C060008F0020CFD900004E0FF7E00640170060F
:100C16009000007405F0EF64024E6003020CFD9034
:100C260000017405F0020CFD900004E0FF7E0064F4
:100C36000170069000007402F0EF64024E60030239
:100C46000CFD9000017402F0020CFD900004E0FF20
:100C56007E0064017004900000F0EF64024E6003B1
:100C6600020CFD900001F0020CFD900004E0FF7EF6
:100C760000640170069000007409F0EF64024E7083
:100C8600769000017409F0806E900004E0FF7E000B
:100C9600640170069000007406F0EF64024E70570F
:100CA6009000017406F0804F900004E0FF7E00641F
:100CB6000170069000007403F0EF64024E703890E5
:100CC6000001800B90004D7401F0802B900004749D
:100CD60003F08023900004740480139000047405CC
:100CE600800C900004740680059000047407F09050
:100CF6000053E4F0A304F0E4900006F090004DE009
:100D06006401702ED204C20590004FF0A3F090004B
:100D160000F0A3F0900053F0A3F0C281C2819000CE
:100D260005F0900004F090004DF0A3F0900051F013
:100D3600A3F0900004E064016008900051E06401B3
:100D4600700C9000517401F090005312140390003F
:100D560004E064026008900052E06401700A9000AA
:100D6600527401F0A3121403900000E075F00AA477
:100D7600FFA3E07C002FFFEC35F0FE900053F0A3BC
:100D8600EFF0D3943CEE94004004D2008002C200FF
:100D9600900004E06403700F900053E0FAA3E0FBB8
:080DA6007D047F011214EA2212
:10120100900021120AD800000000900025120AD88F
:1012110000000000900029120AD800000000900090
:101221002D120AD800000000900031120AD80000E7
:101231000000900035120AD800000000900045120D
:101241000AD842700000900039120AD83E19999AC2
:1012510090003D120AD83FAF5C29900041120AD894
:051261003FFC28F6220D
:100DAE00900053E0FCA3E0FDE412096E90002112C6
:100DBE000ACC90000EE0FCA3E0FDE412096EA8043C
:100DCE00A905AA06AB07900021E0FCA3E0FDA3E075
:100DDE00FEA3E0FF1206F5900029120ACC90004502
:100DEE00E0FCA3E0FDA3E0FEA3E0FF900025E0F809
:100DFE00A3E0F9A3E0FAA3E0FB1208F0606C406AEE
:100E0E00E4FFFE7DF07C41900029E0F8A3E0F9A319
:100E1E00E0FAA3E0FB1208F0600B4009E4900062D8
:100E2E00F0A3F08045900062E4F0A304F0E4FFFE2E
:100E3E00FDFC900029E0F8A3E0F9A3E0FAA3E0FBA3
:100E4E001208F05025900035E0FCA3E0FDA3E0FE73
:100E5E00A3E0FF900029E0F8A3E0F9A3E0FAA3E0F5
:100E6E00FB1206F9900035120ACC900062E0FCA34A
:100E7E00E0FDEC12096E90003DE0F8A3E0F9A3E06E
:100E8E00FAA3E0FB1207EA900035E0F8A3E0F9A31D
:100E9E00E0FAA3E0FB1207EAC004C005C006C007D3
:100EAE00900029E0FCA3E0FDA3E0FEA3E0FF90008C
:100EBE0039E0F8A3E0F9A3E0FAA3E0FB1207EAD0C9
:100ECE0003D002D001D0001206F9C004C005C0063E
:100EDE00C00790002DE0F8A3E0F9A3E0FAA3E0FB31
:100EEE00900029E0FCA3E0FDA3E0FEA3E0FF1206C4
:100EFE00F5900041E0F8A3E0F9A3E0FAA3E0FB12BD
:100F0E0007EAD003D002D001D0001206F91209A7C9
:100F1E0090005FEFF0900020E02FF0900029E0FCB1
:0D0F2E00A3E0FDA3E0FEA3E0FFA3020ACCB8
:03000B0002126678
:10126600C0E0C083C082C0D075D000C006C007C22F
:101276008C758CFF758AF7D28C90001FE004F07095
:101286000690001EE004F0C390001FE094649000F6
:101296001EE094004004E4F0A3F090005FE0FF330A
:1012A60095E0FED390001FE09F90001EE09E500444
:1012B600D2848002C284D007D006D0D0D082D08318
:0312C600D0E03243
:100F3B00C284758901758CFF758AF7D2A9D28CE4AE
:100F4B00F5937594107592E17591011215067589DB
:100F5B0021758DFD758BFDD28EC29FD29ED29CD2F8
:100F6B00AFD2AC758CFF758AA3D2AFD2A9D28C75D8
:100F7B0090FFD202C2017F107E27121413E490005F
:100F8B0061F0900061E0C39405748094805021E47B
:100F9B00FF121493900061E025E02410F582E434F5
:100FAB0000F583EEF0A3EFF0900061E004F080D247
:100FBB00900012E0FEA3E0FF900011E02FFF9000E5
:100FCB0010E03EFE900015E02FFF900014E03EFE77
:100FDB00900017E02FFF900016E03EFE900019E006
:100FEB002FFF900018E03EFE7C007D05120A539007
:100FFB00005DEEF0A3EFF07BFF7A1579449000676C
:10100B007406F0E4FDFF12119A12000E900053E0EB
:10101B00FEA3E0FF90000EE0FCA3E0FDC39FFFECFE
:10102B009EFEC3EF9405EE94004015900054E09D96
:10103B00FF900053E09CFEC3EF9405EE9400500626
:10104B00D281D2818004C281C2811214667BFF7A65
:10105B0015794B9000677404F0E4FD7F0112119A2F
:10106B001212C9120B36900053E0FAA3E0FB7D0479
:0B107B007F01121472120DAE020F88EC
:1006F200020A13E86480F8E933E83360110460F019
:10070200ED33EC337009E8FCE9FDEAFEEBFF22046D
:1007120060DED3EB9FEA9EE99DE8C2E78CF0C2F768
:1007220095F0400CE8CCF8E9CDF9EACEFAEBCFFB34
:100732001209DE85D0F05804700320D5B3E80470A6
:10074200075002B2D5020A1D92D5EC0460F7E4CC40
:10075200C0E0C398F8603B94186008400DD0E0FBFD
:100762000209F5E4FBFAC9FC8028E830E406E4C992
:10077200FBE4CAFCE830E305E4C9CACBFCE8540751
:100782006010F8C3E913F9EA13FAEB13FBEC13FC5C
:10079200D8F130F52FC3E49CFCEF9BFFEE9AFEEDFF
:1007A20099FDD0E0FBEF4E4D4C701222DB03020AA2
:1007B2001AEC2CFCEF33FFEE33FEED33FDED30E7A8
:1007C200EB0209F5EF2BFFEE3AFEED39FDD0E0FB2F
:1007D20050130BBB0003020A1DED13FDEE13FEEFD7
:0807E20013FFEC13FC0209F502
:1007EA00EC4D6011E8497017ED33EC3304600DE409
:1007FA00FCFFFEFD22E933E8330470F8020A131203
:10080A0009DE58046009E4CC248150062850090204
:10081A000A1D284003020A1AC0E0EB4A7044B98054
:10082A0006D0E0FB020A09EF4E701CBD8008EBFF00
:10083A00EAFEE9FD80EBE98DF0A4FEE5F00208D3BB
:10084A00E9CDF9EAFEEBFFEF89F0A4FCE5F0CE89E9
:10085A00F0A42EFFE435F0CD89F0A42DFEE435F0A6
:10086A008067EF4E7005BD80D780C3EF8BF0A4ACD4
:10087A00F0EE8BF0A42CFCE435F0F8EF8AF0A42C0F
:10088A00E5F038FCE433CB8DF0A42CFCE5F03BF822
:10089A00EE8AF0A42CFCE5F038F8E433CF89F0A412
:1008AA002CFCE5F038CF3400CE89F0A42FFFE5F018
:1008BA003EFEE433C98DF0A42EFEE5F039CD8AF070
:1008CA00A42FFFE5F03EFEE43DFD33D0E0FB5007E8
:1008DA000BBB000F020A1DEC2CFCEF33FFEE33FEBC
:0608EA00ED33FD0209F5EB
:1008F00074F8CC6480CCC86480C8F58204604FC3AF
:10090000EB9FF5F0EA9E42F0E99D42F0E89C45F04D
:10091000603C501DE5825FFFE582D313CB5BCBF4D7
:100920002B5582FB50280ABA002409B90020088000
:100930001DE5825BFBE582D313CF5FCFF4C3132F9A
:100940005582FF50090EBE00050DBD00010CC3EB22
:100950009FF5F0EA9E42F0E99D42F0E89C45F06088
:0909600007CC4820E701B3EC22AA
:1009690075F020800E75F010800575F0087D007E09
:10097900007F003392D530D503120ABEEC33401004
:10098900EF33FFEE33FEED33FDEC33FCD5F0ED2212
:0E099900E5F0247EA2D513CC92E7CDCEFF224E
:1009A700EDD2E7CD33EC3392D524814006E4FFFE48
:1009B700FDFC22FCE4CFCECDCC24E0501174FF80A7
:1009C700EDC3CC13CCCD13CDCE13CECF13CF047044
:0709D700F030D5DE020ABE7C
:1009DE00E9D2E7C933E833F892D5EDD2E7CD33EC5F
:0709EE0033FC5002B2D522D8
:1009F500EC30E7100FBF000C0EBE00080DBD000463
:100A05000BEB6014A2D5EB13FCED92E7FD2274FF0E
:100A1500FCFDFEFF22E480F8A2D574FF13FC7D8067
:030A2500E480EF7B
:10109200020F3BE493A3F8E493A34003F68001F22A
:1010A20008DFF48029E493A3F85407240CC8C3335F
:1010B200C4540F4420C8834004F456800146F6DF2E
:1010C200E4800B0102040810204080901324E47E87
:1010D200019360BCA3FF543F30E509541FFEE49323
:1010E200A360010ECF54C025E060A840B8E493A3EA
:1010F200FAE493A3F8E493A3C8C582C8CAC583CA15
:10110200F0A3C8C582C8CAC583CADFE9DEE780BECC
:011377000075
:100A2800BB010689828A83E0225002E722BBFE02CC
:090A3800E32289828A83E49322FF
:100A4100EF8DF0A4A8F0CF8CF0A428CE8DF0A42EC9
:020A5100FE2283
:100A5300BC000BBE0029EF8DF084FFADF022E4CC87
:100A6300F875F008EF2FFFEE33FEEC33FCEE9DEC50
:100A7300984005FCEE9DFE0FD5F0E9E4CEFD22ED96
:100A8300F8F5F0EE8420D21CFEADF075F008EF2FE0
:100A9300FFED33FD4007985006D5F0F222C398FDD1
:050AA3000FD5F0EA226E
:100AA800C5F0F8A3E028F0C5F0F8E58215827002D9
:060AB8001583E038F02276
:0E0ABE00C3E49FFFE49EFEE49DFDE49CFC2249
:0C0ACC00ECF0A3EDF0A3EEF0A3EFF0229D
:100AD800A8828583F0D083D082120AEF120AEF121F
:100AE8000AEF120AEFE473E493A3C583C5F0C58344
:100AF800C8C582C8F0A3C583C5F0C583C8C582C868
:010B080022CA
:100B0900D083D082F8E4937012740193700DA3A37B
:100B190093F8740193F5828883E473740293B5F0B2
:0D0B2900067403936860E9A3A3A3A380D81A
:00000001FF
